{
  "contractName": "YieldFarm",
  "abi": [
    {
      "inputs": [
        {
          "internalType": "contract DaiToken",
          "name": "_daiToken",
          "type": "address"
        }
      ],
      "stateMutability": "nonpayable",
      "type": "constructor"
    },
    {
      "anonymous": false,
      "inputs": [
        {
          "indexed": false,
          "internalType": "address",
          "name": "staker",
          "type": "address"
        },
        {
          "indexed": false,
          "internalType": "uint256",
          "name": "amount",
          "type": "uint256"
        },
        {
          "indexed": false,
          "internalType": "uint256",
          "name": "balance",
          "type": "uint256"
        }
      ],
      "name": "Deposit",
      "type": "event"
    },
    {
      "anonymous": false,
      "inputs": [
        {
          "indexed": false,
          "internalType": "address",
          "name": "staker",
          "type": "address"
        },
        {
          "indexed": false,
          "internalType": "uint256",
          "name": "amount",
          "type": "uint256"
        },
        {
          "indexed": false,
          "internalType": "uint256",
          "name": "balance",
          "type": "uint256"
        }
      ],
      "name": "Rebalance",
      "type": "event"
    },
    {
      "anonymous": false,
      "inputs": [
        {
          "indexed": false,
          "internalType": "address",
          "name": "staker",
          "type": "address"
        },
        {
          "indexed": false,
          "internalType": "uint256",
          "name": "amount",
          "type": "uint256"
        },
        {
          "indexed": false,
          "internalType": "uint256",
          "name": "balance",
          "type": "uint256"
        }
      ],
      "name": "Withdrawl",
      "type": "event"
    },
    {
      "inputs": [
        {
          "internalType": "address",
          "name": "",
          "type": "address"
        }
      ],
      "name": "balanceOf",
      "outputs": [
        {
          "internalType": "uint256",
          "name": "",
          "type": "uint256"
        }
      ],
      "stateMutability": "view",
      "type": "function"
    },
    {
      "inputs": [],
      "name": "daiToken",
      "outputs": [
        {
          "internalType": "contract DaiToken",
          "name": "",
          "type": "address"
        }
      ],
      "stateMutability": "view",
      "type": "function"
    },
    {
      "inputs": [],
      "name": "name",
      "outputs": [
        {
          "internalType": "string",
          "name": "",
          "type": "string"
        }
      ],
      "stateMutability": "view",
      "type": "function"
    },
    {
      "inputs": [
        {
          "internalType": "address",
          "name": "_token",
          "type": "address"
        },
        {
          "internalType": "uint256",
          "name": "_amount",
          "type": "uint256"
        }
      ],
      "name": "depositDai",
      "outputs": [],
      "stateMutability": "nonpayable",
      "type": "function"
    }
  ],
  "bytecode": "0x60806040526040518060400160405280600e81526020017f446169205969656c64204661726d0000000000000000000000000000000000008152506001908051906020019062000051929190620000cc565b503480156200005f57600080fd5b5060405162000b5438038062000b54833981810160405281019062000085919062000193565b806000806101000a81548173ffffffffffffffffffffffffffffffffffffffff021916908373ffffffffffffffffffffffffffffffffffffffff1602179055505062000291565b828054620000da906200020d565b90600052602060002090601f016020900481019282620000fe57600085556200014a565b82601f106200011957805160ff19168380011785556200014a565b828001600101855582156200014a579182015b82811115620001495782518255916020019190600101906200012c565b5b5090506200015991906200015d565b5090565b5b80821115620001785760008160009055506001016200015e565b5090565b6000815190506200018d8162000277565b92915050565b600060208284031215620001ac57620001ab62000272565b5b6000620001bc848285016200017c565b91505092915050565b6000620001d282620001ed565b9050919050565b6000620001e682620001c5565b9050919050565b600073ffffffffffffffffffffffffffffffffffffffff82169050919050565b600060028204905060018216806200022657607f821691505b602082108114156200023d576200023c62000243565b5b50919050565b7f4e487b7100000000000000000000000000000000000000000000000000000000600052602260045260246000fd5b600080fd5b6200028281620001d9565b81146200028e57600080fd5b50565b6108b380620002a16000396000f3fe608060405234801561001057600080fd5b506004361061004c5760003560e01c806306fdde031461005157806370a082311461006f578063be22f5461461009f578063f3497cc2146100bd575b600080fd5b6100596100d9565b60405161006691906105e9565b60405180910390f35b6100896004803603810190610084919061043d565b610167565b604051610096919061062b565b60405180910390f35b6100a761017f565b6040516100b491906105ce565b60405180910390f35b6100d760048036038101906100d2919061046a565b6101a3565b005b600180546100e690610769565b80601f016020809104026020016040519081016040528092919081815260200182805461011290610769565b801561015f5780601f106101345761010080835404028352916020019161015f565b820191906000526020600020905b81548152906001019060200180831161014257829003601f168201915b505050505081565b60026020528060005260406000206000915090505481565b60008054906101000a900473ffffffffffffffffffffffffffffffffffffffff1681565b736b175474e89094c44da98b954eedeac495271d0f73ffffffffffffffffffffffffffffffffffffffff168273ffffffffffffffffffffffffffffffffffffffff1614610225576040517f08c379a000000000000000000000000000000000000000000000000000000000815260040161021c9061060b565b60405180910390fd5b60008054906101000a900473ffffffffffffffffffffffffffffffffffffffff1673ffffffffffffffffffffffffffffffffffffffff166323b872dd3330846040518463ffffffff1660e01b815260040161028293929190610560565b602060405180830381600087803b15801561029c57600080fd5b505af11580156102b0573d6000803e3d6000fd5b505050506040513d601f19601f820116820180604052508101906102d491906104aa565b5061032781600260003373ffffffffffffffffffffffffffffffffffffffff1673ffffffffffffffffffffffffffffffffffffffff168152602001908152602001600020546103e890919063ffffffff16565b600260003373ffffffffffffffffffffffffffffffffffffffff1673ffffffffffffffffffffffffffffffffffffffff168152602001908152602001600020819055507f90890809c654f11d6e72a28fa60149770a0d11ec6c92319d6ceb2bb0a4ea1a153382600260003373ffffffffffffffffffffffffffffffffffffffff1673ffffffffffffffffffffffffffffffffffffffff168152602001908152602001600020546040516103dc93929190610597565b60405180910390a15050565b600081836103f69190610662565b905092915050565b60008135905061040d81610838565b92915050565b6000815190506104228161084f565b92915050565b60008135905061043781610866565b92915050565b600060208284031215610453576104526107f9565b5b6000610461848285016103fe565b91505092915050565b60008060408385031215610481576104806107f9565b5b600061048f858286016103fe565b92505060206104a085828601610428565b9150509250929050565b6000602082840312156104c0576104bf6107f9565b5b60006104ce84828501610413565b91505092915050565b6104e0816106b8565b82525050565b6104ef81610700565b82525050565b600061050082610646565b61050a8185610651565b935061051a818560208601610736565b610523816107fe565b840191505092915050565b600061053b601883610651565b91506105468261080f565b602082019050919050565b61055a816106f6565b82525050565b600060608201905061057560008301866104d7565b61058260208301856104d7565b61058f6040830184610551565b949350505050565b60006060820190506105ac60008301866104d7565b6105b96020830185610551565b6105c66040830184610551565b949350505050565b60006020820190506105e360008301846104e6565b92915050565b6000602082019050818103600083015261060381846104f5565b905092915050565b600060208201905081810360008301526106248161052e565b9050919050565b60006020820190506106406000830184610551565b92915050565b600081519050919050565b600082825260208201905092915050565b600061066d826106f6565b9150610678836106f6565b9250827fffffffffffffffffffffffffffffffffffffffffffffffffffffffffffffffff038211156106ad576106ac61079b565b5b828201905092915050565b60006106c3826106d6565b9050919050565b60008115159050919050565b600073ffffffffffffffffffffffffffffffffffffffff82169050919050565b6000819050919050565b600061070b82610712565b9050919050565b600061071d82610724565b9050919050565b600061072f826106d6565b9050919050565b60005b83811015610754578082015181840152602081019050610739565b83811115610763576000848401525b50505050565b6000600282049050600182168061078157607f821691505b60208210811415610795576107946107ca565b5b50919050565b7f4e487b7100000000000000000000000000000000000000000000000000000000600052601160045260246000fd5b7f4e487b7100000000000000000000000000000000000000000000000000000000600052602260045260246000fd5b600080fd5b6000601f19601f8301169050919050565b7f596f75206d6179206f6e6c79206465706f736974204461690000000000000000600082015250565b610841816106b8565b811461084c57600080fd5b50565b610858816106ca565b811461086357600080fd5b50565b61086f816106f6565b811461087a57600080fd5b5056fea264697066735822122022758268d6ecba0044a1ccd7a577077302a1b66dc529953f4feee87f67312ff364736f6c63430008070033",
  "immutableReferences": {},
  "source": "// SPDX-License-Identifier: MIT\r\npragma solidity >=0.8.0 <0.9.0;\r\n\r\nimport \"openzeppelin-solidity/contracts/utils/math/SafeMath.sol\";\r\n\r\ninterface DaiToken{\r\n    function transfer(address _to, uint _value) external returns (bool);\r\n    function transferFrom(address _from, address _to, uint _value) external returns (bool);\r\n    function balanceOf(address _user) external view returns (uint);\r\n    function approve(address _spender, uint256 _value) external returns (bool);\r\n}\r\n\r\n\r\ncontract YieldFarm {\r\n    using SafeMath for uint256;\r\n\r\n    DaiToken public daiToken;\r\n\r\n    string public name = \"Dai Yield Farm\"; // smoke test use case\r\n\r\n    address constant DAI = address(0x6B175474E89094C44Da98b954EedeAC495271d0F); // DAI eth address\r\n    \r\n    mapping(address => uint256) public balanceOf;\r\n\r\n    event Deposit(address staker, uint256 amount, uint256 balance);\r\n    event Withdrawl(address staker, uint256 amount, uint256 balance);\r\n    event Rebalance(address staker, uint256 amount, uint256 balance);\r\n\r\n    constructor(DaiToken _daiToken) public {\r\n        daiToken = _daiToken;\r\n    }\r\n\r\n    // deposit dai\r\n    function depositDai(address _token, uint256 _amount) public {\r\n        require(_token == DAI, \"You may only deposit Dai\");\r\n        daiToken.transferFrom(msg.sender, address(this), _amount);\r\n        balanceOf[msg.sender] = balanceOf[msg.sender].add(_amount);\r\n        emit Deposit(msg.sender,_amount,balanceOf[msg.sender]);\r\n    }\r\n\r\n    // withdrawl Dai\r\n\r\n    // rebalance dai\r\n\r\n\r\n}",
  "sourcePath": "C:\\pr0\\projects\\yield_farmer\\src\\contracts\\YieldFarm.sol",
  "compiler": {
    "name": "solc",
    "version": "0.8.7+commit.e28d00a7.Emscripten.clang"
  },
  "schemaVersion": "3.4.3",
  "updatedAt": "2021-09-19T16:30:39.417Z",
  "devdoc": {
    "kind": "dev",
    "methods": {},
    "version": 1
  },
  "userdoc": {
    "kind": "user",
    "methods": {},
    "version": 1
  }
}