{
  "contractName": "YieldFarm",
  "abi": [
    {
      "inputs": [
        {
          "internalType": "contract IERC20",
          "name": "_daiToken",
          "type": "address"
        },
        {
          "internalType": "contract CErc20",
          "name": "_cDaiToken",
          "type": "address"
        },
        {
          "internalType": "contract AErc20",
          "name": "_aDaiToken",
          "type": "address"
        },
        {
          "internalType": "contract ILendingPool",
          "name": "_lendingPool",
          "type": "address"
        },
        {
          "internalType": "contract ILendingPoolAddressesProvider",
          "name": "_addProvider",
          "type": "address"
        }
      ],
      "stateMutability": "nonpayable",
      "type": "constructor"
    },
    {
      "anonymous": false,
      "inputs": [
        {
          "indexed": false,
          "internalType": "address",
          "name": "staker",
          "type": "address"
        },
        {
          "indexed": false,
          "internalType": "uint256",
          "name": "amount",
          "type": "uint256"
        },
        {
          "indexed": false,
          "internalType": "uint256",
          "name": "balance",
          "type": "uint256"
        },
        {
          "indexed": false,
          "internalType": "enum YieldFarm.Provider",
          "name": "provider",
          "type": "uint8"
        }
      ],
      "name": "Deposit",
      "type": "event"
    },
    {
      "anonymous": false,
      "inputs": [
        {
          "indexed": false,
          "internalType": "string",
          "name": "",
          "type": "string"
        },
        {
          "indexed": false,
          "internalType": "uint256",
          "name": "",
          "type": "uint256"
        }
      ],
      "name": "MyLog",
      "type": "event"
    },
    {
      "anonymous": false,
      "inputs": [
        {
          "indexed": false,
          "internalType": "address",
          "name": "staker",
          "type": "address"
        },
        {
          "indexed": false,
          "internalType": "uint256",
          "name": "balance",
          "type": "uint256"
        }
      ],
      "name": "Rebalance",
      "type": "event"
    },
    {
      "anonymous": false,
      "inputs": [
        {
          "indexed": false,
          "internalType": "address",
          "name": "staker",
          "type": "address"
        },
        {
          "indexed": false,
          "internalType": "uint256",
          "name": "amount",
          "type": "uint256"
        },
        {
          "indexed": false,
          "internalType": "uint256",
          "name": "balance",
          "type": "uint256"
        }
      ],
      "name": "Withdrawl",
      "type": "event"
    },
    {
      "inputs": [],
      "name": "Lending_Pool",
      "outputs": [
        {
          "internalType": "contract ILendingPool",
          "name": "",
          "type": "address"
        }
      ],
      "stateMutability": "view",
      "type": "function"
    },
    {
      "inputs": [],
      "name": "aDaiToken",
      "outputs": [
        {
          "internalType": "contract AErc20",
          "name": "",
          "type": "address"
        }
      ],
      "stateMutability": "view",
      "type": "function"
    },
    {
      "inputs": [
        {
          "internalType": "address",
          "name": "",
          "type": "address"
        }
      ],
      "name": "balanceOf",
      "outputs": [
        {
          "internalType": "uint256",
          "name": "",
          "type": "uint256"
        }
      ],
      "stateMutability": "view",
      "type": "function"
    },
    {
      "inputs": [],
      "name": "cDaiToken",
      "outputs": [
        {
          "internalType": "contract CErc20",
          "name": "",
          "type": "address"
        }
      ],
      "stateMutability": "view",
      "type": "function"
    },
    {
      "inputs": [],
      "name": "daiToken",
      "outputs": [
        {
          "internalType": "contract IERC20",
          "name": "",
          "type": "address"
        }
      ],
      "stateMutability": "view",
      "type": "function"
    },
    {
      "inputs": [],
      "name": "name",
      "outputs": [
        {
          "internalType": "string",
          "name": "",
          "type": "string"
        }
      ],
      "stateMutability": "view",
      "type": "function"
    },
    {
      "inputs": [
        {
          "internalType": "address",
          "name": "",
          "type": "address"
        }
      ],
      "name": "usersProvider",
      "outputs": [
        {
          "internalType": "enum YieldFarm.Provider",
          "name": "",
          "type": "uint8"
        }
      ],
      "stateMutability": "view",
      "type": "function"
    },
    {
      "inputs": [
        {
          "internalType": "address",
          "name": "_token",
          "type": "address"
        },
        {
          "internalType": "uint256",
          "name": "_amount",
          "type": "uint256"
        }
      ],
      "name": "depositDai",
      "outputs": [],
      "stateMutability": "nonpayable",
      "type": "function"
    },
    {
      "inputs": [
        {
          "internalType": "address",
          "name": "_token",
          "type": "address"
        },
        {
          "internalType": "uint256",
          "name": "_amount",
          "type": "uint256"
        }
      ],
      "name": "withdrawlDai",
      "outputs": [],
      "stateMutability": "nonpayable",
      "type": "function"
    }
  ],
  "bytecode": "0x6080604052600060018111156200001b576200001a620005be565b5b600460146101000a81548160ff02191690836001811115620000425762000041620005be565b5b02179055506001808111156200005d576200005c620005be565b5b600460156101000a81548160ff02191690836001811115620000845762000083620005be565b5b02179055506040518060400160405280600e81526020017f446169205969656c64204661726d00000000000000000000000000000000000081525060059080519060200190620000d6929190620002fc565b50348015620000e457600080fd5b5060405162002ddd38038062002ddd83398181016040528101906200010a919062000468565b846000806101000a81548173ffffffffffffffffffffffffffffffffffffffff021916908373ffffffffffffffffffffffffffffffffffffffff16021790555083600160006101000a81548173ffffffffffffffffffffffffffffffffffffffff021916908373ffffffffffffffffffffffffffffffffffffffff16021790555082600260006101000a81548173ffffffffffffffffffffffffffffffffffffffff021916908373ffffffffffffffffffffffffffffffffffffffff16021790555080600460006101000a81548173ffffffffffffffffffffffffffffffffffffffff021916908373ffffffffffffffffffffffffffffffffffffffff160217905550600460009054906101000a900473ffffffffffffffffffffffffffffffffffffffff1673ffffffffffffffffffffffffffffffffffffffff16630261bf8b6040518163ffffffff1660e01b815260040160206040518083038186803b1580156200027657600080fd5b505afa1580156200028b573d6000803e3d6000fd5b505050506040513d601f19601f82011682018060405250810190620002b1919062000436565b600360006101000a81548173ffffffffffffffffffffffffffffffffffffffff021916908373ffffffffffffffffffffffffffffffffffffffff1602179055505050505050620006bd565b8280546200030a9062000588565b90600052602060002090601f0160209004810192826200032e57600085556200037a565b82601f106200034957805160ff19168380011785556200037a565b828001600101855582156200037a579182015b82811115620003795782518255916020019190600101906200035c565b5b5090506200038991906200038d565b5090565b5b80821115620003a85760008160009055506001016200038e565b5090565b600081519050620003bd8162000621565b92915050565b600081519050620003d4816200063b565b92915050565b600081519050620003eb8162000655565b92915050565b60008151905062000402816200066f565b92915050565b600081519050620004198162000689565b92915050565b6000815190506200043081620006a3565b92915050565b6000602082840312156200044f576200044e6200061c565b5b60006200045f84828501620003ac565b91505092915050565b600080600080600060a086880312156200048757620004866200061c565b5b60006200049788828901620003f1565b9550506020620004aa88828901620003da565b9450506040620004bd88828901620003c3565b9350506060620004d0888289016200041f565b9250506080620004e38882890162000408565b9150509295509295909350565b6000620004fd8262000568565b9050919050565b60006200051182620004f0565b9050919050565b60006200052582620004f0565b9050919050565b60006200053982620004f0565b9050919050565b60006200054d82620004f0565b9050919050565b60006200056182620004f0565b9050919050565b600073ffffffffffffffffffffffffffffffffffffffff82169050919050565b60006002820490506001821680620005a157607f821691505b60208210811415620005b857620005b7620005ed565b5b50919050565b7f4e487b7100000000000000000000000000000000000000000000000000000000600052602160045260246000fd5b7f4e487b7100000000000000000000000000000000000000000000000000000000600052602260045260246000fd5b600080fd5b6200062c81620004f0565b81146200063857600080fd5b50565b620006468162000504565b81146200065257600080fd5b50565b620006608162000518565b81146200066c57600080fd5b50565b6200067a816200052c565b81146200068657600080fd5b50565b620006948162000540565b8114620006a057600080fd5b50565b620006ae8162000554565b8114620006ba57600080fd5b50565b61271080620006cd6000396000f3fe608060405234801561001057600080fd5b50600436106100935760003560e01c80635ce4fa83116100665780635ce4fa831461012057806370a082311461013e578063ba266b131461016e578063be22f5461461018c578063f3497cc2146101aa57610093565b806306fdde0314610098578063110cc4f1146100b6578063116c47d8146100d25780634ec5a910146100f0575b600080fd5b6100a06101c6565b6040516100ad9190611d42565b60405180910390f35b6100d060048036038101906100cb91906118b7565b610254565b005b6100da61050a565b6040516100e79190611d0c565b60405180910390f35b61010a6004803603810190610105919061188a565b610530565b6040516101179190611d27565b60405180910390f35b610128610550565b6040516101359190611cbb565b60405180910390f35b6101586004803603810190610153919061188a565b610576565b6040516101659190611e64565b60405180910390f35b61017661058e565b6040516101839190611cd6565b60405180910390f35b6101946105b4565b6040516101a19190611cf1565b60405180910390f35b6101c460048036038101906101bf91906118b7565b6105d8565b005b600580546101d3906122dd565b80601f01602080910402602001604051908101604052809291908181526020018280546101ff906122dd565b801561024c5780601f106102215761010080835404028352916020019161024c565b820191906000526020600020905b81548152906001019060200180831161022f57829003601f168201915b505050505081565b736b175474e89094c44da98b954eedeac495271d0f73ffffffffffffffffffffffffffffffffffffffff168273ffffffffffffffffffffffffffffffffffffffff16146102d6576040517f08c379a00000000000000000000000000000000000000000000000000000000081526004016102cd90611dc4565b60405180910390fd5b80600760003373ffffffffffffffffffffffffffffffffffffffff1673ffffffffffffffffffffffffffffffffffffffff168152602001908152602001600020541015610358576040517f08c379a000000000000000000000000000000000000000000000000000000000815260040161034f90611e44565b60405180910390fd5b600460149054906101000a900460ff16600181111561037a576103796123cd565b5b600660003373ffffffffffffffffffffffffffffffffffffffff1673ffffffffffffffffffffffffffffffffffffffff16815260200190815260200160002060009054906101000a900460ff1660018111156103d9576103d86123cd565b5b14156103ed576103e88161092c565b6103f7565b6103f681610c1c565b5b61044981600760003373ffffffffffffffffffffffffffffffffffffffff1673ffffffffffffffffffffffffffffffffffffffff16815260200190815260200160002054610dfc90919063ffffffff16565b600760003373ffffffffffffffffffffffffffffffffffffffff1673ffffffffffffffffffffffffffffffffffffffff168152602001908152602001600020819055507fecec28467198affe9b330468377fc67864aef81527f0a9a0c13330d9336e717d3382600760003373ffffffffffffffffffffffffffffffffffffffff1673ffffffffffffffffffffffffffffffffffffffff168152602001908152602001600020546040516104fe93929190611c3f565b60405180910390a15050565b600360009054906101000a900473ffffffffffffffffffffffffffffffffffffffff1681565b60066020528060005260406000206000915054906101000a900460ff1681565b600260009054906101000a900473ffffffffffffffffffffffffffffffffffffffff1681565b60076020528060005260406000206000915090505481565b600160009054906101000a900473ffffffffffffffffffffffffffffffffffffffff1681565b60008054906101000a900473ffffffffffffffffffffffffffffffffffffffff1681565b736b175474e89094c44da98b954eedeac495271d0f73ffffffffffffffffffffffffffffffffffffffff168273ffffffffffffffffffffffffffffffffffffffff161461065a576040517f08c379a000000000000000000000000000000000000000000000000000000000815260040161065190611dc4565b60405180910390fd5b8060008054906101000a900473ffffffffffffffffffffffffffffffffffffffff1673ffffffffffffffffffffffffffffffffffffffff166370a08231336040518263ffffffff1660e01b81526004016106b49190611b48565b60206040518083038186803b1580156106cc57600080fd5b505afa1580156106e0573d6000803e3d6000fd5b505050506040513d601f19601f820116820180604052508101906107049190611952565b1015610745576040517f08c379a000000000000000000000000000000000000000000000000000000000815260040161073c90611e04565b60405180910390fd5b60008054906101000a900473ffffffffffffffffffffffffffffffffffffffff1673ffffffffffffffffffffffffffffffffffffffff166323b872dd3330846040518463ffffffff1660e01b81526004016107a293929190611b63565b602060405180830381600087803b1580156107bc57600080fd5b505af11580156107d0573d6000803e3d6000fd5b505050506040513d601f19601f820116820180604052508101906107f491906118f7565b610833576040517f08c379a000000000000000000000000000000000000000000000000000000000815260040161082a90611da4565b60405180910390fd5b61088581600760003373ffffffffffffffffffffffffffffffffffffffff1673ffffffffffffffffffffffffffffffffffffffff16815260200190815260200160002054610e1290919063ffffffff16565b600760003373ffffffffffffffffffffffffffffffffffffffff1673ffffffffffffffffffffffffffffffffffffffff1681526020019081526020016000208190555060006108d2610e28565b9050600460149054906101000a900460ff1660018111156108f6576108f56123cd565b5b816001811115610909576109086123cd565b5b141561091d576109188261104f565b610927565b610926826112cb565b5b505050565b600260009054906101000a900473ffffffffffffffffffffffffffffffffffffffff1673ffffffffffffffffffffffffffffffffffffffff1663095ea7b3600360009054906101000a900473ffffffffffffffffffffffffffffffffffffffff167fffffffffffffffffffffffffffffffffffffffffffffffffffffffffffffffff6040518363ffffffff1660e01b81526004016109cb929190611b9a565b602060405180830381600087803b1580156109e557600080fd5b505af11580156109f9573d6000803e3d6000fd5b505050506040513d601f19601f82011682018060405250810190610a1d91906118f7565b506000600260009054906101000a900473ffffffffffffffffffffffffffffffffffffffff1673ffffffffffffffffffffffffffffffffffffffff166370a08231306040518263ffffffff1660e01b8152600401610a7b9190611b48565b602060405180830381600087803b158015610a9557600080fd5b505af1158015610aa9573d6000803e3d6000fd5b505050506040513d601f19601f82011682018060405250810190610acd9190611952565b9050818111610b11576040517f08c379a0000000000000000000000000000000000000000000000000000000008152600401610b0890611d84565b60405180910390fd5b6000600360009054906101000a900473ffffffffffffffffffffffffffffffffffffffff1673ffffffffffffffffffffffffffffffffffffffff166369328dec736b175474e89094c44da98b954eedeac495271d0f85336040518463ffffffff1660e01b8152600401610b8693929190611bc3565b602060405180830381600087803b158015610ba057600080fd5b505af1158015610bb4573d6000803e3d6000fd5b505050506040513d601f19601f82011682018060405250810190610bd89190611952565b14610c18576040517f08c379a0000000000000000000000000000000000000000000000000000000008152600401610c0f90611d64565b60405180910390fd5b5050565b6000600160009054906101000a900473ffffffffffffffffffffffffffffffffffffffff1673ffffffffffffffffffffffffffffffffffffffff1663db006a75836040518263ffffffff1660e01b8152600401610c799190611e64565b602060405180830381600087803b158015610c9357600080fd5b505af1158015610ca7573d6000803e3d6000fd5b505050506040513d601f19601f82011682018060405250810190610ccb9190611952565b14610d0b576040517f08c379a0000000000000000000000000000000000000000000000000000000008152600401610d0290611de4565b60405180910390fd5b60008054906101000a900473ffffffffffffffffffffffffffffffffffffffff1673ffffffffffffffffffffffffffffffffffffffff166323b872dd3033846040518463ffffffff1660e01b8152600401610d6893929190611b63565b602060405180830381600087803b158015610d8257600080fd5b505af1158015610d96573d6000803e3d6000fd5b505050506040513d601f19601f82011682018060405250810190610dba91906118f7565b610df9576040517f08c379a0000000000000000000000000000000000000000000000000000000008152600401610df090611e24565b60405180910390fd5b50565b60008183610e0a9190612143565b905092915050565b60008183610e209190611ec0565b905092915050565b600080610e3361154e565b60006001811115610e4757610e466123cd565b5b9150600360009054906101000a900473ffffffffffffffffffffffffffffffffffffffff1673ffffffffffffffffffffffffffffffffffffffff166335ea6a75736b175474e89094c44da98b954eedeac495271d0f6040518263ffffffff1660e01b8152600401610eb89190611b48565b6101806040518083038186803b158015610ed157600080fd5b505afa158015610ee5573d6000803e3d6000fd5b505050506040513d601f19601f82011682018060405250810190610f099190611924565b90506064600161016d6001611680670de0b6b3a7640000600160009054906101000a900473ffffffffffffffffffffffffffffffffffffffff1673ffffffffffffffffffffffffffffffffffffffff1663ae9d70b06040518163ffffffff1660e01b8152600401602060405180830381600087803b158015610f8a57600080fd5b505af1158015610f9e573d6000803e3d6000fd5b505050506040513d601f19601f82011682018060405250810190610fc29190611952565b610fcc9190611f47565b610fd691906120e9565b610fe09190611ec0565b610fea9190611fcb565b610ff49190612143565b610ffe91906120e9565b6a084595161401484a00000082606001516110199190611f16565b6fffffffffffffffffffffffffffffffff16101561104757600180811115611044576110436123cd565b5b91505b819250505090565b60008054906101000a900473ffffffffffffffffffffffffffffffffffffffff1673ffffffffffffffffffffffffffffffffffffffff1663095ea7b3600360009054906101000a900473ffffffffffffffffffffffffffffffffffffffff16836040518363ffffffff1660e01b81526004016110cc929190611b9a565b602060405180830381600087803b1580156110e657600080fd5b505af11580156110fa573d6000803e3d6000fd5b505050506040513d601f19601f8201168201806040525081019061111e91906118f7565b50600360009054906101000a900473ffffffffffffffffffffffffffffffffffffffff1673ffffffffffffffffffffffffffffffffffffffff1663e8eda9df736b175474e89094c44da98b954eedeac495271d0f833060006040518563ffffffff1660e01b81526004016111959493929190611bfa565b600060405180830381600087803b1580156111af57600080fd5b505af11580156111c3573d6000803e3d6000fd5b50505050600460149054906101000a900460ff16600660003373ffffffffffffffffffffffffffffffffffffffff1673ffffffffffffffffffffffffffffffffffffffff16815260200190815260200160002060006101000a81548160ff02191690836001811115611238576112376123cd565b5b02179055507fa7db47d395930224de3f54139208b4a958fe3747c2ad1dee5a6624643a6def933382600760003373ffffffffffffffffffffffffffffffffffffffff1673ffffffffffffffffffffffffffffffffffffffff16815260200190815260200160002054600460149054906101000a900460ff166040516112c09493929190611c76565b60405180910390a150565b60008054906101000a900473ffffffffffffffffffffffffffffffffffffffff1673ffffffffffffffffffffffffffffffffffffffff1663095ea7b3735d3a536e4d6dbd6114cc1ead35777bab948e3643836040518363ffffffff1660e01b815260040161133a929190611b9a565b602060405180830381600087803b15801561135457600080fd5b505af1158015611368573d6000803e3d6000fd5b505050506040513d601f19601f8201168201806040525081019061138c91906118f7565b506000600160009054906101000a900473ffffffffffffffffffffffffffffffffffffffff1673ffffffffffffffffffffffffffffffffffffffff1663a0712d68836040518263ffffffff1660e01b81526004016113ea9190611e64565b602060405180830381600087803b15801561140457600080fd5b505af1158015611418573d6000803e3d6000fd5b505050506040513d601f19601f8201168201806040525081019061143c9190611952565b1461144a57611449612340565b5b600460159054906101000a900460ff16600660003373ffffffffffffffffffffffffffffffffffffffff1673ffffffffffffffffffffffffffffffffffffffff16815260200190815260200160002060006101000a81548160ff021916908360018111156114bb576114ba6123cd565b5b02179055507fa7db47d395930224de3f54139208b4a958fe3747c2ad1dee5a6624643a6def933382600760003373ffffffffffffffffffffffffffffffffffffffff1673ffffffffffffffffffffffffffffffffffffffff16815260200190815260200160002054600460159054906101000a900460ff166040516115439493929190611c76565b60405180910390a150565b604051806101800160405280611562611671565b815260200160006fffffffffffffffffffffffffffffffff16815260200160006fffffffffffffffffffffffffffffffff16815260200160006fffffffffffffffffffffffffffffffff16815260200160006fffffffffffffffffffffffffffffffff16815260200160006fffffffffffffffffffffffffffffffff168152602001600064ffffffffff168152602001600073ffffffffffffffffffffffffffffffffffffffff168152602001600073ffffffffffffffffffffffffffffffffffffffff168152602001600073ffffffffffffffffffffffffffffffffffffffff168152602001600073ffffffffffffffffffffffffffffffffffffffff168152602001600060ff1681525090565b6040518060200160405280600081525090565b60008135905061169381612650565b92915050565b6000815190506116a881612650565b92915050565b6000815190506116bd81612667565b92915050565b6000602082840312156116d9576116d861245a565b5b6116e36020611e7f565b905060006116f38482850161184b565b60008301525092915050565b600061018082840312156117165761171561245a565b5b611721610180611e7f565b90506000611731848285016116c3565b600083015250602061174584828501611821565b602083015250604061175984828501611821565b604083015250606061176d84828501611821565b606083015250608061178184828501611821565b60808301525060a061179584828501611821565b60a08301525060c06117a984828501611860565b60c08301525060e06117bd84828501611699565b60e0830152506101006117d284828501611699565b610100830152506101206117e884828501611699565b610120830152506101406117fe84828501611699565b6101408301525061016061181484828501611875565b6101608301525092915050565b6000815190506118308161267e565b92915050565b60008135905061184581612695565b92915050565b60008151905061185a81612695565b92915050565b60008151905061186f816126ac565b92915050565b600081519050611884816126c3565b92915050565b6000602082840312156118a05761189f61245f565b5b60006118ae84828501611684565b91505092915050565b600080604083850312156118ce576118cd61245f565b5b60006118dc85828601611684565b92505060206118ed85828601611836565b9150509250929050565b60006020828403121561190d5761190c61245f565b5b600061191b848285016116ae565b91505092915050565b6000610180828403121561193b5761193a61245f565b5b6000611949848285016116ff565b91505092915050565b6000602082840312156119685761196761245f565b5b60006119768482850161184b565b91505092915050565b61198881612177565b82525050565b6119978161221a565b82525050565b6119a68161222c565b82525050565b6119b58161223e565b82525050565b6119c481612250565b82525050565b6119d381612262565b82525050565b6119e281612274565b82525050565b60006119f382611ea4565b6119fd8185611eaf565b9350611a0d8185602086016122aa565b611a1681612464565b840191505092915050565b6000611a2e601983611eaf565b9150611a3982612482565b602082019050919050565b6000611a51602983611eaf565b9150611a5c826124ab565b604082019050919050565b6000611a74600e83611eaf565b9150611a7f826124fa565b602082019050919050565b6000611a97601883611eaf565b9150611aa282612523565b602082019050919050565b6000611aba600d83611eaf565b9150611ac58261254c565b602082019050919050565b6000611add602383611eaf565b9150611ae882612575565b604082019050919050565b6000611b00601d83611eaf565b9150611b0b826125c4565b602082019050919050565b6000611b23602883611eaf565b9150611b2e826125ed565b604082019050919050565b611b42816121f2565b82525050565b6000602082019050611b5d600083018461197f565b92915050565b6000606082019050611b78600083018661197f565b611b85602083018561197f565b611b926040830184611b39565b949350505050565b6000604082019050611baf600083018561197f565b611bbc6020830184611b39565b9392505050565b6000606082019050611bd8600083018661197f565b611be56020830185611b39565b611bf2604083018461197f565b949350505050565b6000608082019050611c0f600083018761197f565b611c1c6020830186611b39565b611c29604083018561197f565b611c3660608301846119d9565b95945050505050565b6000606082019050611c54600083018661197f565b611c616020830185611b39565b611c6e6040830184611b39565b949350505050565b6000608082019050611c8b600083018761197f565b611c986020830186611b39565b611ca56040830185611b39565b611cb260608301846119ca565b95945050505050565b6000602082019050611cd0600083018461198e565b92915050565b6000602082019050611ceb600083018461199d565b92915050565b6000602082019050611d0660008301846119ac565b92915050565b6000602082019050611d2160008301846119bb565b92915050565b6000602082019050611d3c60008301846119ca565b92915050565b60006020820190508181036000830152611d5c81846119e8565b905092915050565b60006020820190508181036000830152611d7d81611a21565b9050919050565b60006020820190508181036000830152611d9d81611a44565b9050919050565b60006020820190508181036000830152611dbd81611a67565b9050919050565b60006020820190508181036000830152611ddd81611a8a565b9050919050565b60006020820190508181036000830152611dfd81611aad565b9050919050565b60006020820190508181036000830152611e1d81611ad0565b9050919050565b60006020820190508181036000830152611e3d81611af3565b9050919050565b60006020820190508181036000830152611e5d81611b16565b9050919050565b6000602082019050611e796000830184611b39565b92915050565b6000611e89611e9a565b9050611e95828261230f565b919050565b6000604051905090565b600081519050919050565b600082825260208201905092915050565b6000611ecb826121f2565b9150611ed6836121f2565b9250827fffffffffffffffffffffffffffffffffffffffffffffffffffffffffffffffff03821115611f0b57611f0a61236f565b5b828201905092915050565b6000611f21826121a8565b9150611f2c836121a8565b925082611f3c57611f3b61239e565b5b828204905092915050565b6000611f52826121f2565b9150611f5d836121f2565b925082611f6d57611f6c61239e565b5b828204905092915050565b6000808291508390505b6001851115611fc257808604811115611f9e57611f9d61236f565b5b6001851615611fad5780820291505b8081029050611fbb85612475565b9450611f82565b94509492505050565b6000611fd6826121f2565b9150611fe1836121c4565b925061200e7fffffffffffffffffffffffffffffffffffffffffffffffffffffffffffffffff8484612016565b905092915050565b60008261202657600190506120e2565b8161203457600090506120e2565b816001811461204a576002811461205457612083565b60019150506120e2565b60ff8411156120665761206561236f565b5b8360020a91508482111561207d5761207c61236f565b5b506120e2565b5060208310610133831016604e8410600b84101617156120b85782820a9050838111156120b3576120b261236f565b5b6120e2565b6120c58484846001611f78565b925090508184048111156120dc576120db61236f565b5b81810290505b9392505050565b60006120f4826121f2565b91506120ff836121f2565b9250817fffffffffffffffffffffffffffffffffffffffffffffffffffffffffffffffff04831182151516156121385761213761236f565b5b828202905092915050565b600061214e826121f2565b9150612159836121f2565b92508282101561216c5761216b61236f565b5b828203905092915050565b6000612182826121d2565b9050919050565b60008115159050919050565b60008190506121a38261263c565b919050565b60006fffffffffffffffffffffffffffffffff82169050919050565b600061ffff82169050919050565b600073ffffffffffffffffffffffffffffffffffffffff82169050919050565b6000819050919050565b600064ffffffffff82169050919050565b600060ff82169050919050565b600061222582612286565b9050919050565b600061223782612286565b9050919050565b600061224982612286565b9050919050565b600061225b82612286565b9050919050565b600061226d82612195565b9050919050565b600061227f826121c4565b9050919050565b600061229182612298565b9050919050565b60006122a3826121d2565b9050919050565b60005b838110156122c85780820151818401526020810190506122ad565b838111156122d7576000848401525b50505050565b600060028204905060018216806122f557607f821691505b60208210811415612309576123086123fc565b5b50919050565b61231882612464565b810181811067ffffffffffffffff821117156123375761233661242b565b5b80604052505050565b7f4e487b7100000000000000000000000000000000000000000000000000000000600052600160045260246000fd5b7f4e487b7100000000000000000000000000000000000000000000000000000000600052601160045260246000fd5b7f4e487b7100000000000000000000000000000000000000000000000000000000600052601260045260246000fd5b7f4e487b7100000000000000000000000000000000000000000000000000000000600052602160045260246000fd5b7f4e487b7100000000000000000000000000000000000000000000000000000000600052602260045260246000fd5b7f4e487b7100000000000000000000000000000000000000000000000000000000600052604160045260246000fd5b600080fd5b600080fd5b6000601f19601f8301169050919050565b60008160011c9050919050565b7f57697468647261772066726f6d2041617665206661696c656400000000000000600082015250565b7f416176652062616c616e6365206c6f776572207468616e20726571756573742060008201527f77697468647261776c0000000000000000000000000000000000000000000000602082015250565b7f4465706f736974204661696c6564000000000000000000000000000000000000600082015250565b7f596f75206d6179206f6e6c79206465706f736974204461690000000000000000600082015250565b7f72656465656d206661696c656400000000000000000000000000000000000000600082015250565b7f596f75206d757374206861766520656e6f75676820746f6b656e7320746f207360008201527f656e640000000000000000000000000000000000000000000000000000000000602082015250565b7f5472616e73666572206661696c65642066726f6d20436f6d706f756e64000000600082015250565b7f596f75206d757374206861766520656e6f75676820746f6b656e7320746f207760008201527f697468647261776c000000000000000000000000000000000000000000000000602082015250565b6002811061264d5761264c6123cd565b5b50565b61265981612177565b811461266457600080fd5b50565b61267081612189565b811461267b57600080fd5b50565b612687816121a8565b811461269257600080fd5b50565b61269e816121f2565b81146126a957600080fd5b50565b6126b5816121fc565b81146126c057600080fd5b50565b6126cc8161220d565b81146126d757600080fd5b5056fea26469706673582212203b6494ffd160cc5b00a91db5df7f2cc0dc5bd33a869c5a480d63e00323db0f6964736f6c63430008070033",
  "immutableReferences": {},
  "source": "// SPDX-License-Identifier: MIT\r\npragma solidity >=0.8.0 <0.9.0;\r\n\r\nimport \"openzeppelin-solidity/contracts/utils/math/SafeMath.sol\";\r\n\r\ninterface CErc20 { // Compound Erc20\r\n    function mint(uint256) external returns (uint256);\r\n    function exchangeRateCurrent() external returns (uint256);\r\n    function supplyRatePerBlock() external returns (uint256);\r\n    function redeem(uint) external returns (uint);\r\n    function redeemUnderlying(uint) external returns (uint);\r\n    function balanceOfUnderlying(address account) external returns (uint);\r\n    function balanceOf(address account) external returns (uint);\r\n    function approve(address _spender, uint256 _value) external returns (bool);\r\n\r\n}\r\n\r\ninterface AErc20 { // Aave Erc20\r\n    function mint(address user,uint256 amount,uint256 index) external returns (bool);\r\n    function transferUnderlyingTo(address user, uint256 amount) external returns (uint256);\r\n    function balanceOfUnderlying(address account) external returns (uint);\r\n    function balanceOf(address account) external returns (uint);\r\n    function approve(address _spender, uint256 _value) external returns (bool);\r\n}\r\n\r\nimport {ILendingPool} from \"./AaveInterfaces/ILendingPool.sol\";\r\nimport {DataTypes} from \"./AaveInterfaces/DataTypes.sol\";\r\nimport {ILendingPoolAddressesProvider} from \"./AaveInterfaces/ILendingPoolAddressesProvider.sol\";\r\nimport {IERC20} from \"./IERC20.sol\";\r\n\r\n\r\n\r\n\r\ncontract YieldFarm {\r\n    event MyLog(string, uint256);\r\n    using SafeMath for uint256;\r\n\r\n    enum Provider {\r\n        Aave,\r\n        Compound\r\n    }\r\n\r\n    IERC20 public daiToken;\r\n    CErc20 public cDaiToken;\r\n    AErc20 public aDaiToken;\r\n    ILendingPool public Lending_Pool;\r\n    ILendingPoolAddressesProvider addressProvider;\r\n\r\n\r\n    Provider private aave = Provider(0);\r\n    Provider private compound = Provider(1);\r\n\r\n    string public name = \"Dai Yield Farm\"; // smoke test use case\r\n\r\n    address constant DAI = address(0x6B175474E89094C44Da98b954EedeAC495271d0F);\r\n    address constant cDAI = address(0x5d3a536E4D6DbD6114cc1Ead35777bAB948E3643); // compound Dai reward\r\n    address constant LendingPoolAddress = address(0x7d2768dE32b0b80b7a3454c06BdAc94A69DDc7A9);\r\n    address constant LendingPoolProviderAddress = address(0xB53C1a33016B2DC2fF3653530bfF1848a515c8c5);\r\n    address constant aDAI = address(0x028171bCA77440897B824Ca71D1c56caC55b68A3);\r\n\r\n    mapping(address => Provider) public usersProvider;\r\n\r\n    mapping(address => uint256) public balanceOf;\r\n\r\n    event Deposit(address staker, uint256 amount, uint256 balance, Provider provider);\r\n    event Withdrawl(address staker, uint256 amount, uint256 balance);\r\n    event Rebalance(address staker, uint256 balance);\r\n\r\n    constructor(IERC20 _daiToken, CErc20 _cDaiToken, AErc20 _aDaiToken, ILendingPool _lendingPool, ILendingPoolAddressesProvider _addProvider) public {\r\n        daiToken = _daiToken;\r\n        cDaiToken = _cDaiToken;\r\n        aDaiToken = _aDaiToken;\r\n        addressProvider = _addProvider;\r\n        Lending_Pool = ILendingPool(addressProvider.getLendingPool());\r\n    }\r\n\r\n    // deposit dai\r\n    function depositDai(address _token, uint256 _amount) public{\r\n        require(_token == DAI, \"You may only deposit Dai\");\r\n        require(daiToken.balanceOf(msg.sender) >= _amount, \"You must have enough tokens to send\");\r\n        require(daiToken.transferFrom(msg.sender, address(this), _amount), \"Deposit Failed\");\r\n\r\n        balanceOf[msg.sender] = balanceOf[msg.sender].add(_amount);\r\n\r\n        Provider betterRateProvider = getBestRate();\r\n        if(betterRateProvider == aave){\r\n            depositDaiToAave(_amount);\r\n        }else{\r\n            depositDaiToCompound(_amount);\r\n        }\r\n    }\r\n\r\n    function depositDaiToCompound(uint256 _amount) internal {\r\n        daiToken.approve(cDAI, _amount);\r\n        assert(cDaiToken.mint(_amount) == 0); // 0 = success \r\n        usersProvider[msg.sender] = compound;\r\n        emit Deposit(msg.sender,_amount,balanceOf[msg.sender],compound);\r\n    }\r\n\r\n    function depositDaiToAave(uint256 _amount) internal {\r\n        daiToken.approve(address(Lending_Pool), _amount);\r\n        Lending_Pool.deposit(address(DAI),_amount,address(this),0); // 0 = no referalcode\r\n        usersProvider[msg.sender] = aave;\r\n        emit Deposit(msg.sender,_amount,balanceOf[msg.sender],aave);\r\n    }\r\n\r\n    function redeemFromCompound(uint256 _amount) internal{\r\n        require(cDaiToken.redeem(_amount) == 0, \"redeem failed\");\r\n        require(daiToken.transferFrom(address(this), msg.sender, _amount),\"Transfer failed from Compound\");\r\n    }\r\n\r\n    function reedeemFromAave(uint _amount) internal {\r\n        aDaiToken.approve(address(Lending_Pool), type(uint256).max);\r\n        uint256 aaveBalance = aDaiToken.balanceOf(address(this));\r\n        require(aaveBalance > _amount, \"Aave balance lower than request withdrawl\");\r\n        require(Lending_Pool.withdraw(address(DAI), _amount, msg.sender) == 0,\"Withdraw from Aave failed\");\r\n    }\r\n\r\n    // withdrawl Dai\r\n    function withdrawlDai(address _token, uint256 _amount) public {\r\n        require(_token == DAI, \"You may only deposit Dai\");\r\n        require(balanceOf[msg.sender] >= _amount, \"You must have enough tokens to withdrawl\");\r\n        if(usersProvider[msg.sender] == aave){\r\n            reedeemFromAave(_amount);\r\n        }else{\r\n            redeemFromCompound(_amount);\r\n        }\r\n\r\n        balanceOf[msg.sender] = balanceOf[msg.sender].sub(_amount);\r\n        emit Withdrawl(msg.sender, _amount, balanceOf[msg.sender]);\r\n    }\r\n\r\n    // rebalance dai\r\n\r\n    //check for best rate\r\n    function getBestRate() internal returns (Provider) {\r\n        Provider bestRateProvider;\r\n        DataTypes.ReserveData memory returnData;\r\n\r\n        bestRateProvider = Provider(0); // aave by default\r\n\r\n        //get AAVE data\r\n        returnData = Lending_Pool.getReserveData(DAI);\r\n        if ((returnData.currentLiquidityRate / 1e25) < (((((cDaiToken.supplyRatePerBlock() / 1e18 * 5760) + 1) ** 365) - 1) * 100)){\r\n            bestRateProvider = Provider(1);\r\n        }\r\n\r\n        return bestRateProvider;\r\n    }\r\n\r\n}",
  "sourcePath": "C:\\pr0\\projects\\yield_farmer\\src\\contracts\\YieldFarm.sol",
  "compiler": {
    "name": "solc",
    "version": "0.8.7+commit.e28d00a7.Emscripten.clang"
  },
  "schemaVersion": "3.4.3",
  "updatedAt": "2021-09-24T17:34:25.427Z",
  "devdoc": {
    "kind": "dev",
    "methods": {},
    "version": 1
  },
  "userdoc": {
    "kind": "user",
    "methods": {},
    "version": 1
  }
}