{
  "contractName": "YieldFarm",
  "abi": [
    {
      "inputs": [
        {
          "internalType": "contract IERC20",
          "name": "_daiToken",
          "type": "address"
        },
        {
          "internalType": "contract CErc20",
          "name": "_cDaiToken",
          "type": "address"
        },
        {
          "internalType": "contract AErc20",
          "name": "_aDaiToken",
          "type": "address"
        },
        {
          "internalType": "contract ILendingPool",
          "name": "_lendingPool",
          "type": "address"
        },
        {
          "internalType": "contract ILendingPoolAddressesProvider",
          "name": "_addProvider",
          "type": "address"
        }
      ],
      "stateMutability": "nonpayable",
      "type": "constructor"
    },
    {
      "anonymous": false,
      "inputs": [
        {
          "indexed": false,
          "internalType": "address",
          "name": "staker",
          "type": "address"
        },
        {
          "indexed": false,
          "internalType": "uint256",
          "name": "amount",
          "type": "uint256"
        },
        {
          "indexed": false,
          "internalType": "uint256",
          "name": "balance",
          "type": "uint256"
        },
        {
          "indexed": false,
          "internalType": "enum YieldFarm.Provider",
          "name": "provider",
          "type": "uint8"
        }
      ],
      "name": "Deposit",
      "type": "event"
    },
    {
      "anonymous": false,
      "inputs": [
        {
          "indexed": false,
          "internalType": "string",
          "name": "",
          "type": "string"
        },
        {
          "indexed": false,
          "internalType": "uint256",
          "name": "",
          "type": "uint256"
        }
      ],
      "name": "MyLog",
      "type": "event"
    },
    {
      "anonymous": false,
      "inputs": [
        {
          "indexed": false,
          "internalType": "address",
          "name": "staker",
          "type": "address"
        },
        {
          "indexed": false,
          "internalType": "uint256",
          "name": "balance",
          "type": "uint256"
        }
      ],
      "name": "Rebalance",
      "type": "event"
    },
    {
      "anonymous": false,
      "inputs": [
        {
          "indexed": false,
          "internalType": "address",
          "name": "staker",
          "type": "address"
        },
        {
          "indexed": false,
          "internalType": "uint256",
          "name": "amount",
          "type": "uint256"
        },
        {
          "indexed": false,
          "internalType": "uint256",
          "name": "balance",
          "type": "uint256"
        }
      ],
      "name": "Withdrawl",
      "type": "event"
    },
    {
      "inputs": [],
      "name": "Lending_Pool",
      "outputs": [
        {
          "internalType": "contract ILendingPool",
          "name": "",
          "type": "address"
        }
      ],
      "stateMutability": "view",
      "type": "function"
    },
    {
      "inputs": [],
      "name": "aDaiToken",
      "outputs": [
        {
          "internalType": "contract AErc20",
          "name": "",
          "type": "address"
        }
      ],
      "stateMutability": "view",
      "type": "function"
    },
    {
      "inputs": [
        {
          "internalType": "address",
          "name": "",
          "type": "address"
        }
      ],
      "name": "balanceOf",
      "outputs": [
        {
          "internalType": "uint256",
          "name": "",
          "type": "uint256"
        }
      ],
      "stateMutability": "view",
      "type": "function"
    },
    {
      "inputs": [],
      "name": "cDaiToken",
      "outputs": [
        {
          "internalType": "contract CErc20",
          "name": "",
          "type": "address"
        }
      ],
      "stateMutability": "view",
      "type": "function"
    },
    {
      "inputs": [],
      "name": "daiToken",
      "outputs": [
        {
          "internalType": "contract IERC20",
          "name": "",
          "type": "address"
        }
      ],
      "stateMutability": "view",
      "type": "function"
    },
    {
      "inputs": [],
      "name": "name",
      "outputs": [
        {
          "internalType": "string",
          "name": "",
          "type": "string"
        }
      ],
      "stateMutability": "view",
      "type": "function"
    },
    {
      "inputs": [
        {
          "internalType": "address",
          "name": "",
          "type": "address"
        }
      ],
      "name": "usersProvider",
      "outputs": [
        {
          "internalType": "enum YieldFarm.Provider",
          "name": "",
          "type": "uint8"
        }
      ],
      "stateMutability": "view",
      "type": "function"
    },
    {
      "inputs": [
        {
          "internalType": "address",
          "name": "_token",
          "type": "address"
        },
        {
          "internalType": "uint256",
          "name": "_amount",
          "type": "uint256"
        }
      ],
      "name": "depositDai",
      "outputs": [],
      "stateMutability": "nonpayable",
      "type": "function"
    },
    {
      "inputs": [
        {
          "internalType": "address",
          "name": "_token",
          "type": "address"
        },
        {
          "internalType": "uint256",
          "name": "_amount",
          "type": "uint256"
        }
      ],
      "name": "withdrawlDai",
      "outputs": [],
      "stateMutability": "nonpayable",
      "type": "function"
    }
  ],
  "bytecode": "0x6080604052600060018111156200001b576200001a62000491565b5b600460146101000a81548160ff0219169083600181111562000042576200004162000491565b5b02179055506001808111156200005d576200005c62000491565b5b600460156101000a81548160ff0219169083600181111562000084576200008362000491565b5b02179055506040518060400160405280600e81526020017f446169205969656c64204661726d00000000000000000000000000000000000081525060059080519060200190620000d692919062000218565b50348015620000e457600080fd5b5060405162002e8338038062002e8383398181016040528101906200010a91906200033b565b846000806101000a81548173ffffffffffffffffffffffffffffffffffffffff021916908373ffffffffffffffffffffffffffffffffffffffff16021790555083600160006101000a81548173ffffffffffffffffffffffffffffffffffffffff021916908373ffffffffffffffffffffffffffffffffffffffff16021790555082600260006101000a81548173ffffffffffffffffffffffffffffffffffffffff021916908373ffffffffffffffffffffffffffffffffffffffff16021790555080600460006101000a81548173ffffffffffffffffffffffffffffffffffffffff021916908373ffffffffffffffffffffffffffffffffffffffff160217905550505050505062000576565b82805462000226906200045b565b90600052602060002090601f0160209004810192826200024a576000855562000296565b82601f106200026557805160ff191683800117855562000296565b8280016001018555821562000296579182015b828111156200029557825182559160200191906001019062000278565b5b509050620002a59190620002a9565b5090565b5b80821115620002c4576000816000905550600101620002aa565b5090565b600081519050620002d981620004f4565b92915050565b600081519050620002f0816200050e565b92915050565b600081519050620003078162000528565b92915050565b6000815190506200031e8162000542565b92915050565b60008151905062000335816200055c565b92915050565b600080600080600060a086880312156200035a5762000359620004ef565b5b60006200036a88828901620002f6565b95505060206200037d88828901620002df565b94505060406200039088828901620002c8565b9350506060620003a38882890162000324565b9250506080620003b6888289016200030d565b9150509295509295909350565b6000620003d0826200043b565b9050919050565b6000620003e482620003c3565b9050919050565b6000620003f882620003c3565b9050919050565b60006200040c82620003c3565b9050919050565b60006200042082620003c3565b9050919050565b60006200043482620003c3565b9050919050565b600073ffffffffffffffffffffffffffffffffffffffff82169050919050565b600060028204905060018216806200047457607f821691505b602082108114156200048b576200048a620004c0565b5b50919050565b7f4e487b7100000000000000000000000000000000000000000000000000000000600052602160045260246000fd5b7f4e487b7100000000000000000000000000000000000000000000000000000000600052602260045260246000fd5b600080fd5b620004ff81620003d7565b81146200050b57600080fd5b50565b6200051981620003eb565b81146200052557600080fd5b50565b6200053381620003ff565b81146200053f57600080fd5b50565b6200054d8162000413565b81146200055957600080fd5b50565b620005678162000427565b81146200057357600080fd5b50565b6128fd80620005866000396000f3fe608060405234801561001057600080fd5b50600436106100935760003560e01c80635ce4fa83116100665780635ce4fa831461012057806370a082311461013e578063ba266b131461016e578063be22f5461461018c578063f3497cc2146101aa57610093565b806306fdde0314610098578063110cc4f1146100b6578063116c47d8146100d25780634ec5a910146100f0575b600080fd5b6100a06101c6565b6040516100ad9190611f2f565b60405180910390f35b6100d060048036038101906100cb9190611aa4565b610254565b005b6100da61050a565b6040516100e79190611ef9565b60405180910390f35b61010a60048036038101906101059190611a4a565b610530565b6040516101179190611f14565b60405180910390f35b610128610550565b6040516101359190611ea8565b60405180910390f35b61015860048036038101906101539190611a4a565b610576565b6040516101659190612051565b60405180910390f35b61017661058e565b6040516101839190611ec3565b60405180910390f35b6101946105b4565b6040516101a19190611ede565b60405180910390f35b6101c460048036038101906101bf9190611aa4565b6105d8565b005b600580546101d3906124ca565b80601f01602080910402602001604051908101604052809291908181526020018280546101ff906124ca565b801561024c5780601f106102215761010080835404028352916020019161024c565b820191906000526020600020905b81548152906001019060200180831161022f57829003601f168201915b505050505081565b736b175474e89094c44da98b954eedeac495271d0f73ffffffffffffffffffffffffffffffffffffffff168273ffffffffffffffffffffffffffffffffffffffff16146102d6576040517f08c379a00000000000000000000000000000000000000000000000000000000081526004016102cd90611fb1565b60405180910390fd5b80600760003373ffffffffffffffffffffffffffffffffffffffff1673ffffffffffffffffffffffffffffffffffffffff168152602001908152602001600020541015610358576040517f08c379a000000000000000000000000000000000000000000000000000000000815260040161034f90612031565b60405180910390fd5b600460149054906101000a900460ff16600181111561037a576103796125ba565b5b600660003373ffffffffffffffffffffffffffffffffffffffff1673ffffffffffffffffffffffffffffffffffffffff16815260200190815260200160002060009054906101000a900460ff1660018111156103d9576103d86125ba565b5b14156103ed576103e88161092c565b6103f7565b6103f681610cfc565b5b61044981600760003373ffffffffffffffffffffffffffffffffffffffff1673ffffffffffffffffffffffffffffffffffffffff16815260200190815260200160002054610edc90919063ffffffff16565b600760003373ffffffffffffffffffffffffffffffffffffffff1673ffffffffffffffffffffffffffffffffffffffff168152602001908152602001600020819055507fecec28467198affe9b330468377fc67864aef81527f0a9a0c13330d9336e717d3382600760003373ffffffffffffffffffffffffffffffffffffffff1673ffffffffffffffffffffffffffffffffffffffff168152602001908152602001600020546040516104fe93929190611e2c565b60405180910390a15050565b600360009054906101000a900473ffffffffffffffffffffffffffffffffffffffff1681565b60066020528060005260406000206000915054906101000a900460ff1681565b600260009054906101000a900473ffffffffffffffffffffffffffffffffffffffff1681565b60076020528060005260406000206000915090505481565b600160009054906101000a900473ffffffffffffffffffffffffffffffffffffffff1681565b60008054906101000a900473ffffffffffffffffffffffffffffffffffffffff1681565b736b175474e89094c44da98b954eedeac495271d0f73ffffffffffffffffffffffffffffffffffffffff168273ffffffffffffffffffffffffffffffffffffffff161461065a576040517f08c379a000000000000000000000000000000000000000000000000000000000815260040161065190611fb1565b60405180910390fd5b8060008054906101000a900473ffffffffffffffffffffffffffffffffffffffff1673ffffffffffffffffffffffffffffffffffffffff166370a08231336040518263ffffffff1660e01b81526004016106b49190611d35565b60206040518083038186803b1580156106cc57600080fd5b505afa1580156106e0573d6000803e3d6000fd5b505050506040513d601f19601f820116820180604052508101906107049190611b3f565b1015610745576040517f08c379a000000000000000000000000000000000000000000000000000000000815260040161073c90611ff1565b60405180910390fd5b60008054906101000a900473ffffffffffffffffffffffffffffffffffffffff1673ffffffffffffffffffffffffffffffffffffffff166323b872dd3330846040518463ffffffff1660e01b81526004016107a293929190611d50565b602060405180830381600087803b1580156107bc57600080fd5b505af11580156107d0573d6000803e3d6000fd5b505050506040513d601f19601f820116820180604052508101906107f49190611ae4565b610833576040517f08c379a000000000000000000000000000000000000000000000000000000000815260040161082a90611f91565b60405180910390fd5b61088581600760003373ffffffffffffffffffffffffffffffffffffffff1673ffffffffffffffffffffffffffffffffffffffff16815260200190815260200160002054610ef290919063ffffffff16565b600760003373ffffffffffffffffffffffffffffffffffffffff1673ffffffffffffffffffffffffffffffffffffffff1681526020019081526020016000208190555060006108d2610f08565b9050600460149054906101000a900460ff1660018111156108f6576108f56125ba565b5b816001811115610909576109086125ba565b5b141561091d576109188261112f565b610927565b6109268261148b565b5b505050565b600460009054906101000a900473ffffffffffffffffffffffffffffffffffffffff1673ffffffffffffffffffffffffffffffffffffffff16630261bf8b6040518163ffffffff1660e01b815260040160206040518083038186803b15801561099457600080fd5b505afa1580156109a8573d6000803e3d6000fd5b505050506040513d601f19601f820116820180604052508101906109cc9190611a77565b600360006101000a81548173ffffffffffffffffffffffffffffffffffffffff021916908373ffffffffffffffffffffffffffffffffffffffff160217905550600260009054906101000a900473ffffffffffffffffffffffffffffffffffffffff1673ffffffffffffffffffffffffffffffffffffffff1663095ea7b3600360009054906101000a900473ffffffffffffffffffffffffffffffffffffffff167fffffffffffffffffffffffffffffffffffffffffffffffffffffffffffffffff6040518363ffffffff1660e01b8152600401610aab929190611d87565b602060405180830381600087803b158015610ac557600080fd5b505af1158015610ad9573d6000803e3d6000fd5b505050506040513d601f19601f82011682018060405250810190610afd9190611ae4565b506000600260009054906101000a900473ffffffffffffffffffffffffffffffffffffffff1673ffffffffffffffffffffffffffffffffffffffff166370a08231306040518263ffffffff1660e01b8152600401610b5b9190611d35565b602060405180830381600087803b158015610b7557600080fd5b505af1158015610b89573d6000803e3d6000fd5b505050506040513d601f19601f82011682018060405250810190610bad9190611b3f565b9050818111610bf1576040517f08c379a0000000000000000000000000000000000000000000000000000000008152600401610be890611f71565b60405180910390fd5b6000600360009054906101000a900473ffffffffffffffffffffffffffffffffffffffff1673ffffffffffffffffffffffffffffffffffffffff166369328dec736b175474e89094c44da98b954eedeac495271d0f85336040518463ffffffff1660e01b8152600401610c6693929190611db0565b602060405180830381600087803b158015610c8057600080fd5b505af1158015610c94573d6000803e3d6000fd5b505050506040513d601f19601f82011682018060405250810190610cb89190611b3f565b14610cf8576040517f08c379a0000000000000000000000000000000000000000000000000000000008152600401610cef90611f51565b60405180910390fd5b5050565b6000600160009054906101000a900473ffffffffffffffffffffffffffffffffffffffff1673ffffffffffffffffffffffffffffffffffffffff1663db006a75836040518263ffffffff1660e01b8152600401610d599190612051565b602060405180830381600087803b158015610d7357600080fd5b505af1158015610d87573d6000803e3d6000fd5b505050506040513d601f19601f82011682018060405250810190610dab9190611b3f565b14610deb576040517f08c379a0000000000000000000000000000000000000000000000000000000008152600401610de290611fd1565b60405180910390fd5b60008054906101000a900473ffffffffffffffffffffffffffffffffffffffff1673ffffffffffffffffffffffffffffffffffffffff166323b872dd3033846040518463ffffffff1660e01b8152600401610e4893929190611d50565b602060405180830381600087803b158015610e6257600080fd5b505af1158015610e76573d6000803e3d6000fd5b505050506040513d601f19601f82011682018060405250810190610e9a9190611ae4565b610ed9576040517f08c379a0000000000000000000000000000000000000000000000000000000008152600401610ed090612011565b60405180910390fd5b50565b60008183610eea9190612330565b905092915050565b60008183610f0091906120ad565b905092915050565b600080610f1361170e565b60006001811115610f2757610f266125ba565b5b9150600360009054906101000a900473ffffffffffffffffffffffffffffffffffffffff1673ffffffffffffffffffffffffffffffffffffffff166335ea6a75736b175474e89094c44da98b954eedeac495271d0f6040518263ffffffff1660e01b8152600401610f989190611d35565b6101806040518083038186803b158015610fb157600080fd5b505afa158015610fc5573d6000803e3d6000fd5b505050506040513d601f19601f82011682018060405250810190610fe99190611b11565b90506064600161016d6001611680670de0b6b3a7640000600160009054906101000a900473ffffffffffffffffffffffffffffffffffffffff1673ffffffffffffffffffffffffffffffffffffffff1663ae9d70b06040518163ffffffff1660e01b8152600401602060405180830381600087803b15801561106a57600080fd5b505af115801561107e573d6000803e3d6000fd5b505050506040513d601f19601f820116820180604052508101906110a29190611b3f565b6110ac9190612134565b6110b691906122d6565b6110c091906120ad565b6110ca91906121b8565b6110d49190612330565b6110de91906122d6565b6a084595161401484a00000082606001516110f99190612103565b6fffffffffffffffffffffffffffffffff16101561112757600180811115611124576111236125ba565b5b91505b819250505090565b600460009054906101000a900473ffffffffffffffffffffffffffffffffffffffff1673ffffffffffffffffffffffffffffffffffffffff16630261bf8b6040518163ffffffff1660e01b815260040160206040518083038186803b15801561119757600080fd5b505afa1580156111ab573d6000803e3d6000fd5b505050506040513d601f19601f820116820180604052508101906111cf9190611a77565b600360006101000a81548173ffffffffffffffffffffffffffffffffffffffff021916908373ffffffffffffffffffffffffffffffffffffffff16021790555060008054906101000a900473ffffffffffffffffffffffffffffffffffffffff1673ffffffffffffffffffffffffffffffffffffffff1663095ea7b3600360009054906101000a900473ffffffffffffffffffffffffffffffffffffffff16836040518363ffffffff1660e01b815260040161128c929190611d87565b602060405180830381600087803b1580156112a657600080fd5b505af11580156112ba573d6000803e3d6000fd5b505050506040513d601f19601f820116820180604052508101906112de9190611ae4565b50600360009054906101000a900473ffffffffffffffffffffffffffffffffffffffff1673ffffffffffffffffffffffffffffffffffffffff1663e8eda9df736b175474e89094c44da98b954eedeac495271d0f833060006040518563ffffffff1660e01b81526004016113559493929190611de7565b600060405180830381600087803b15801561136f57600080fd5b505af1158015611383573d6000803e3d6000fd5b50505050600460149054906101000a900460ff16600660003373ffffffffffffffffffffffffffffffffffffffff1673ffffffffffffffffffffffffffffffffffffffff16815260200190815260200160002060006101000a81548160ff021916908360018111156113f8576113f76125ba565b5b02179055507fa7db47d395930224de3f54139208b4a958fe3747c2ad1dee5a6624643a6def933382600760003373ffffffffffffffffffffffffffffffffffffffff1673ffffffffffffffffffffffffffffffffffffffff16815260200190815260200160002054600460149054906101000a900460ff166040516114809493929190611e63565b60405180910390a150565b60008054906101000a900473ffffffffffffffffffffffffffffffffffffffff1673ffffffffffffffffffffffffffffffffffffffff1663095ea7b3735d3a536e4d6dbd6114cc1ead35777bab948e3643836040518363ffffffff1660e01b81526004016114fa929190611d87565b602060405180830381600087803b15801561151457600080fd5b505af1158015611528573d6000803e3d6000fd5b505050506040513d601f19601f8201168201806040525081019061154c9190611ae4565b506000600160009054906101000a900473ffffffffffffffffffffffffffffffffffffffff1673ffffffffffffffffffffffffffffffffffffffff1663a0712d68836040518263ffffffff1660e01b81526004016115aa9190612051565b602060405180830381600087803b1580156115c457600080fd5b505af11580156115d8573d6000803e3d6000fd5b505050506040513d601f19601f820116820180604052508101906115fc9190611b3f565b1461160a5761160961252d565b5b600460159054906101000a900460ff16600660003373ffffffffffffffffffffffffffffffffffffffff1673ffffffffffffffffffffffffffffffffffffffff16815260200190815260200160002060006101000a81548160ff0219169083600181111561167b5761167a6125ba565b5b02179055507fa7db47d395930224de3f54139208b4a958fe3747c2ad1dee5a6624643a6def933382600760003373ffffffffffffffffffffffffffffffffffffffff1673ffffffffffffffffffffffffffffffffffffffff16815260200190815260200160002054600460159054906101000a900460ff166040516117039493929190611e63565b60405180910390a150565b604051806101800160405280611722611831565b815260200160006fffffffffffffffffffffffffffffffff16815260200160006fffffffffffffffffffffffffffffffff16815260200160006fffffffffffffffffffffffffffffffff16815260200160006fffffffffffffffffffffffffffffffff16815260200160006fffffffffffffffffffffffffffffffff168152602001600064ffffffffff168152602001600073ffffffffffffffffffffffffffffffffffffffff168152602001600073ffffffffffffffffffffffffffffffffffffffff168152602001600073ffffffffffffffffffffffffffffffffffffffff168152602001600073ffffffffffffffffffffffffffffffffffffffff168152602001600060ff1681525090565b6040518060200160405280600081525090565b6000813590506118538161283d565b92915050565b6000815190506118688161283d565b92915050565b60008151905061187d81612854565b92915050565b60006020828403121561189957611898612647565b5b6118a3602061206c565b905060006118b384828501611a0b565b60008301525092915050565b600061018082840312156118d6576118d5612647565b5b6118e161018061206c565b905060006118f184828501611883565b6000830152506020611905848285016119e1565b6020830152506040611919848285016119e1565b604083015250606061192d848285016119e1565b6060830152506080611941848285016119e1565b60808301525060a0611955848285016119e1565b60a08301525060c061196984828501611a20565b60c08301525060e061197d84828501611859565b60e08301525061010061199284828501611859565b610100830152506101206119a884828501611859565b610120830152506101406119be84828501611859565b610140830152506101606119d484828501611a35565b6101608301525092915050565b6000815190506119f08161286b565b92915050565b600081359050611a0581612882565b92915050565b600081519050611a1a81612882565b92915050565b600081519050611a2f81612899565b92915050565b600081519050611a44816128b0565b92915050565b600060208284031215611a6057611a5f61264c565b5b6000611a6e84828501611844565b91505092915050565b600060208284031215611a8d57611a8c61264c565b5b6000611a9b84828501611859565b91505092915050565b60008060408385031215611abb57611aba61264c565b5b6000611ac985828601611844565b9250506020611ada858286016119f6565b9150509250929050565b600060208284031215611afa57611af961264c565b5b6000611b088482850161186e565b91505092915050565b60006101808284031215611b2857611b2761264c565b5b6000611b36848285016118bf565b91505092915050565b600060208284031215611b5557611b5461264c565b5b6000611b6384828501611a0b565b91505092915050565b611b7581612364565b82525050565b611b8481612407565b82525050565b611b9381612419565b82525050565b611ba28161242b565b82525050565b611bb18161243d565b82525050565b611bc08161244f565b82525050565b611bcf81612461565b82525050565b6000611be082612091565b611bea818561209c565b9350611bfa818560208601612497565b611c0381612651565b840191505092915050565b6000611c1b60198361209c565b9150611c268261266f565b602082019050919050565b6000611c3e60298361209c565b9150611c4982612698565b604082019050919050565b6000611c61600e8361209c565b9150611c6c826126e7565b602082019050919050565b6000611c8460188361209c565b9150611c8f82612710565b602082019050919050565b6000611ca7600d8361209c565b9150611cb282612739565b602082019050919050565b6000611cca60238361209c565b9150611cd582612762565b604082019050919050565b6000611ced601d8361209c565b9150611cf8826127b1565b602082019050919050565b6000611d1060288361209c565b9150611d1b826127da565b604082019050919050565b611d2f816123df565b82525050565b6000602082019050611d4a6000830184611b6c565b92915050565b6000606082019050611d656000830186611b6c565b611d726020830185611b6c565b611d7f6040830184611d26565b949350505050565b6000604082019050611d9c6000830185611b6c565b611da96020830184611d26565b9392505050565b6000606082019050611dc56000830186611b6c565b611dd26020830185611d26565b611ddf6040830184611b6c565b949350505050565b6000608082019050611dfc6000830187611b6c565b611e096020830186611d26565b611e166040830185611b6c565b611e236060830184611bc6565b95945050505050565b6000606082019050611e416000830186611b6c565b611e4e6020830185611d26565b611e5b6040830184611d26565b949350505050565b6000608082019050611e786000830187611b6c565b611e856020830186611d26565b611e926040830185611d26565b611e9f6060830184611bb7565b95945050505050565b6000602082019050611ebd6000830184611b7b565b92915050565b6000602082019050611ed86000830184611b8a565b92915050565b6000602082019050611ef36000830184611b99565b92915050565b6000602082019050611f0e6000830184611ba8565b92915050565b6000602082019050611f296000830184611bb7565b92915050565b60006020820190508181036000830152611f498184611bd5565b905092915050565b60006020820190508181036000830152611f6a81611c0e565b9050919050565b60006020820190508181036000830152611f8a81611c31565b9050919050565b60006020820190508181036000830152611faa81611c54565b9050919050565b60006020820190508181036000830152611fca81611c77565b9050919050565b60006020820190508181036000830152611fea81611c9a565b9050919050565b6000602082019050818103600083015261200a81611cbd565b9050919050565b6000602082019050818103600083015261202a81611ce0565b9050919050565b6000602082019050818103600083015261204a81611d03565b9050919050565b60006020820190506120666000830184611d26565b92915050565b6000612076612087565b905061208282826124fc565b919050565b6000604051905090565b600081519050919050565b600082825260208201905092915050565b60006120b8826123df565b91506120c3836123df565b9250827fffffffffffffffffffffffffffffffffffffffffffffffffffffffffffffffff038211156120f8576120f761255c565b5b828201905092915050565b600061210e82612395565b915061211983612395565b9250826121295761212861258b565b5b828204905092915050565b600061213f826123df565b915061214a836123df565b92508261215a5761215961258b565b5b828204905092915050565b6000808291508390505b60018511156121af5780860481111561218b5761218a61255c565b5b600185161561219a5780820291505b80810290506121a885612662565b945061216f565b94509492505050565b60006121c3826123df565b91506121ce836123b1565b92506121fb7fffffffffffffffffffffffffffffffffffffffffffffffffffffffffffffffff8484612203565b905092915050565b60008261221357600190506122cf565b8161222157600090506122cf565b8160018114612237576002811461224157612270565b60019150506122cf565b60ff8411156122535761225261255c565b5b8360020a91508482111561226a5761226961255c565b5b506122cf565b5060208310610133831016604e8410600b84101617156122a55782820a9050838111156122a05761229f61255c565b5b6122cf565b6122b28484846001612165565b925090508184048111156122c9576122c861255c565b5b81810290505b9392505050565b60006122e1826123df565b91506122ec836123df565b9250817fffffffffffffffffffffffffffffffffffffffffffffffffffffffffffffffff04831182151516156123255761232461255c565b5b828202905092915050565b600061233b826123df565b9150612346836123df565b9250828210156123595761235861255c565b5b828203905092915050565b600061236f826123bf565b9050919050565b60008115159050919050565b600081905061239082612829565b919050565b60006fffffffffffffffffffffffffffffffff82169050919050565b600061ffff82169050919050565b600073ffffffffffffffffffffffffffffffffffffffff82169050919050565b6000819050919050565b600064ffffffffff82169050919050565b600060ff82169050919050565b600061241282612473565b9050919050565b600061242482612473565b9050919050565b600061243682612473565b9050919050565b600061244882612473565b9050919050565b600061245a82612382565b9050919050565b600061246c826123b1565b9050919050565b600061247e82612485565b9050919050565b6000612490826123bf565b9050919050565b60005b838110156124b557808201518184015260208101905061249a565b838111156124c4576000848401525b50505050565b600060028204905060018216806124e257607f821691505b602082108114156124f6576124f56125e9565b5b50919050565b61250582612651565b810181811067ffffffffffffffff8211171561252457612523612618565b5b80604052505050565b7f4e487b7100000000000000000000000000000000000000000000000000000000600052600160045260246000fd5b7f4e487b7100000000000000000000000000000000000000000000000000000000600052601160045260246000fd5b7f4e487b7100000000000000000000000000000000000000000000000000000000600052601260045260246000fd5b7f4e487b7100000000000000000000000000000000000000000000000000000000600052602160045260246000fd5b7f4e487b7100000000000000000000000000000000000000000000000000000000600052602260045260246000fd5b7f4e487b7100000000000000000000000000000000000000000000000000000000600052604160045260246000fd5b600080fd5b600080fd5b6000601f19601f8301169050919050565b60008160011c9050919050565b7f57697468647261772066726f6d2041617665206661696c656400000000000000600082015250565b7f416176652062616c616e6365206c6f776572207468616e20726571756573742060008201527f77697468647261776c0000000000000000000000000000000000000000000000602082015250565b7f4465706f736974204661696c6564000000000000000000000000000000000000600082015250565b7f596f75206d6179206f6e6c79206465706f736974204461690000000000000000600082015250565b7f72656465656d206661696c656400000000000000000000000000000000000000600082015250565b7f596f75206d757374206861766520656e6f75676820746f6b656e7320746f207360008201527f656e640000000000000000000000000000000000000000000000000000000000602082015250565b7f5472616e73666572206661696c65642066726f6d20436f6d706f756e64000000600082015250565b7f596f75206d757374206861766520656e6f75676820746f6b656e7320746f207760008201527f697468647261776c000000000000000000000000000000000000000000000000602082015250565b6002811061283a576128396125ba565b5b50565b61284681612364565b811461285157600080fd5b50565b61285d81612376565b811461286857600080fd5b50565b61287481612395565b811461287f57600080fd5b50565b61288b816123df565b811461289657600080fd5b50565b6128a2816123e9565b81146128ad57600080fd5b50565b6128b9816123fa565b81146128c457600080fd5b5056fea2646970667358221220dc44617b6f2eeadfd65d1cca2cc01d8d0d63fc02e9df386c1e187033093210d764736f6c63430008070033",
  "immutableReferences": {},
  "source": "// SPDX-License-Identifier: MIT\r\npragma solidity >=0.8.0 <0.9.0;\r\n\r\nimport \"openzeppelin-solidity/contracts/utils/math/SafeMath.sol\";\r\n\r\ninterface CErc20 { // Compound Erc20\r\n    function mint(uint256) external returns (uint256);\r\n    function exchangeRateCurrent() external returns (uint256);\r\n    function supplyRatePerBlock() external returns (uint256);\r\n    function redeem(uint) external returns (uint);\r\n    function redeemUnderlying(uint) external returns (uint);\r\n    function balanceOfUnderlying(address account) external returns (uint);\r\n    function balanceOf(address account) external returns (uint);\r\n    function approve(address _spender, uint256 _value) external returns (bool);\r\n\r\n}\r\n\r\ninterface AErc20 { // Aave Erc20\r\n    function mint(address user,uint256 amount,uint256 index) external returns (bool);\r\n    function transferUnderlyingTo(address user, uint256 amount) external returns (uint256);\r\n    function balanceOfUnderlying(address account) external returns (uint);\r\n    function balanceOf(address account) external returns (uint);\r\n    function approve(address _spender, uint256 _value) external returns (bool);\r\n}\r\n\r\nimport {ILendingPool} from \"./AaveInterfaces/ILendingPool.sol\";\r\nimport {DataTypes} from \"./AaveInterfaces/DataTypes.sol\";\r\nimport {ILendingPoolAddressesProvider} from \"./AaveInterfaces/ILendingPoolAddressesProvider.sol\";\r\nimport {IERC20} from \"./IERC20.sol\";\r\n\r\n\r\n\r\n\r\ncontract YieldFarm {\r\n    event MyLog(string, uint256);\r\n    using SafeMath for uint256;\r\n\r\n    enum Provider {\r\n        Aave,\r\n        Compound\r\n    }\r\n\r\n    IERC20 public daiToken;\r\n    CErc20 public cDaiToken;\r\n    AErc20 public aDaiToken;\r\n    ILendingPool public Lending_Pool;\r\n    ILendingPoolAddressesProvider addressProvider;\r\n\r\n\r\n    Provider private aave = Provider(0);\r\n    Provider private compound = Provider(1);\r\n\r\n    string public name = \"Dai Yield Farm\"; // smoke test use case\r\n\r\n    address constant DAI = address(0x6B175474E89094C44Da98b954EedeAC495271d0F);\r\n    address constant cDAI = address(0x5d3a536E4D6DbD6114cc1Ead35777bAB948E3643); // compound Dai reward\r\n    address constant LendingPoolAddress = address(0x7d2768dE32b0b80b7a3454c06BdAc94A69DDc7A9);\r\n    address constant aDAI = address(0x028171bCA77440897B824Ca71D1c56caC55b68A3);\r\n\r\n    mapping(address => Provider) public usersProvider;\r\n\r\n    mapping(address => uint256) public balanceOf;\r\n\r\n    event Deposit(address staker, uint256 amount, uint256 balance, Provider provider);\r\n    event Withdrawl(address staker, uint256 amount, uint256 balance);\r\n    event Rebalance(address staker, uint256 balance);\r\n\r\n    constructor(IERC20 _daiToken, CErc20 _cDaiToken, AErc20 _aDaiToken, ILendingPool _lendingPool, ILendingPoolAddressesProvider _addProvider) public {\r\n        daiToken = _daiToken;\r\n        cDaiToken = _cDaiToken;\r\n        aDaiToken = _aDaiToken;\r\n        addressProvider = _addProvider;\r\n    }\r\n\r\n    // deposit dai\r\n    function depositDai(address _token, uint256 _amount) public{\r\n        require(_token == DAI, \"You may only deposit Dai\");\r\n        require(daiToken.balanceOf(msg.sender) >= _amount, \"You must have enough tokens to send\");\r\n        require(daiToken.transferFrom(msg.sender, address(this), _amount), \"Deposit Failed\");\r\n\r\n        balanceOf[msg.sender] = balanceOf[msg.sender].add(_amount);\r\n\r\n        Provider betterRateProvider = getBestRate();\r\n        if(betterRateProvider == aave){\r\n            depositDaiToAave(_amount);\r\n        }else{\r\n            depositDaiToCompound(_amount);\r\n        }\r\n    }\r\n\r\n    function depositDaiToCompound(uint256 _amount) internal {\r\n        daiToken.approve(cDAI, _amount);\r\n        assert(cDaiToken.mint(_amount) == 0); // 0 = success \r\n        usersProvider[msg.sender] = compound;\r\n        emit Deposit(msg.sender,_amount,balanceOf[msg.sender],compound);\r\n    }\r\n\r\n    function depositDaiToAave(uint256 _amount) internal {\r\n        Lending_Pool= ILendingPool(addressProvider.getLendingPool());\r\n        daiToken.approve(address(Lending_Pool), _amount);\r\n        Lending_Pool.deposit(address(DAI),_amount,address(this),0); // 0 = no referalcode\r\n        usersProvider[msg.sender] = aave;\r\n        emit Deposit(msg.sender,_amount,balanceOf[msg.sender],aave);\r\n    }\r\n\r\n    function redeemFromCompound(uint256 _amount) internal{\r\n        require(cDaiToken.redeem(_amount) == 0, \"redeem failed\");\r\n        require(daiToken.transferFrom(address(this), msg.sender, _amount),\"Transfer failed from Compound\");\r\n    }\r\n\r\n    function reedeemFromAave(uint _amount) internal {\r\n        Lending_Pool= ILendingPool(addressProvider.getLendingPool());\r\n        aDaiToken.approve(address(Lending_Pool), type(uint256).max);\r\n        uint256 aaveBalance = aDaiToken.balanceOf(address(this));\r\n        require(aaveBalance > _amount, \"Aave balance lower than request withdrawl\");\r\n        require(Lending_Pool.withdraw(address(DAI), _amount, msg.sender) == 0,\"Withdraw from Aave failed\");\r\n    }\r\n\r\n    // withdrawl Dai\r\n    function withdrawlDai(address _token, uint256 _amount) public {\r\n        require(_token == DAI, \"You may only deposit Dai\");\r\n        require(balanceOf[msg.sender] >= _amount, \"You must have enough tokens to withdrawl\");\r\n        if(usersProvider[msg.sender] == aave){\r\n            reedeemFromAave(_amount);\r\n        }else{\r\n            redeemFromCompound(_amount);\r\n        }\r\n\r\n        balanceOf[msg.sender] = balanceOf[msg.sender].sub(_amount);\r\n        emit Withdrawl(msg.sender, _amount, balanceOf[msg.sender]);\r\n    }\r\n\r\n    // rebalance dai\r\n\r\n    //check for best rate\r\n    function getBestRate() internal returns (Provider) {\r\n        Provider bestRateProvider;\r\n        DataTypes.ReserveData memory returnData;\r\n\r\n        bestRateProvider = Provider(0); // aave by default\r\n\r\n        //get AAVE data\r\n        returnData = Lending_Pool.getReserveData(DAI);\r\n        if ((returnData.currentLiquidityRate / 1e25) < (((((cDaiToken.supplyRatePerBlock() / 1e18 * 5760) + 1) ** 365) - 1) * 100)){\r\n            bestRateProvider = Provider(1);\r\n        }\r\n\r\n        return bestRateProvider;\r\n    }\r\n\r\n}",
  "sourcePath": "C:\\pr0\\projects\\yield_farmer\\src\\contracts\\YieldFarm.sol",
  "compiler": {
    "name": "solc",
    "version": "0.8.7+commit.e28d00a7.Emscripten.clang"
  },
  "schemaVersion": "3.4.3",
  "updatedAt": "2021-09-24T00:12:59.644Z",
  "devdoc": {
    "kind": "dev",
    "methods": {},
    "version": 1
  },
  "userdoc": {
    "kind": "user",
    "methods": {},
    "version": 1
  }
}